{
  "transactions": [
    {
      "hash": "0xb3f8895e26e202010433734adf32fa12e01b1dbbafea4f0de617d2b8bfdbfa02",
      "transactionType": "CALL",
      "contractName": null,
      "contractAddress": "0x1f592b54a638d55056ad45ed810814f7880580c0",
      "function": "registerPool((address,address,uint24,int24,address),bool,address,address,uint256,address)",
      "arguments": [
        "(0xb2c25e8F64236E374283f82F6dFC5F362A78B5D1, 0xD2E4BCBdbdc94f42A0326964E8CEC81c6fECf2Fb, 3000, 60, 0x1f592B54a638d55056Ad45ed810814F7880580c0)",
        "true",
        "0xb2c25e8F64236E374283f82F6dFC5F362A78B5D1",
        "0x2B21322dfA81FcF928B0ad3e1648E5A0aC62E115",
        "1783630093",
        "0x2c36B42B1FDc25429F344E5810fE14e21E8C4e9E"
      ],
      "transaction": {
        "from": "0xf14f8199fd56c0e40860ca59a7196d0170269111",
        "to": "0x1f592b54a638d55056ad45ed810814f7880580c0",
        "gas": "0x2956e",
        "value": "0x0",
        "input": "0x01ca04aa000000000000000000000000b2c25e8f64236e374283f82f6dfc5f362a78b5d1000000000000000000000000d2e4bcbdbdc94f42a0326964e8cec81c6fecf2fb0000000000000000000000000000000000000000000000000000000000000bb8000000000000000000000000000000000000000000000000000000000000003c0000000000000000000000001f592b54a638d55056ad45ed810814f7880580c00000000000000000000000000000000000000000000000000000000000000001000000000000000000000000b2c25e8f64236e374283f82f6dfc5f362a78b5d10000000000000000000000002b21322dfa81fcf928b0ad3e1648e5a0ac62e115000000000000000000000000000000000000000000000000000000006a50090d0000000000000000000000002c36b42b1fdc25429f344e5810fe14e21e8c4e9e",
        "nonce": "0x2b",
        "chainId": "0x515"
      },
      "additionalContracts": [],
      "isFixedGasLimit": false
    },
    {
      "hash": "0x0891719a98eb81d1feaec2bdc8186419619d5dbd3426a2abbdbecc943eff68cd",
      "transactionType": "CALL",
      "contractName": null,
      "contractAddress": "0x1f592b54a638d55056ad45ed810814f7880580c0",
      "function": "registerPool((address,address,uint24,int24,address),bool,address,address,uint256,address)",
      "arguments": [
        "(0x2B21322dfA81FcF928B0ad3e1648E5A0aC62E115, 0xD2E4BCBdbdc94f42A0326964E8CEC81c6fECf2Fb, 3000, 60, 0x1f592B54a638d55056Ad45ed810814F7880580c0)",
        "false",
        "0xb2c25e8F64236E374283f82F6dFC5F362A78B5D1",
        "0x2B21322dfA81FcF928B0ad3e1648E5A0aC62E115",
        "1783630093",
        "0x2c36B42B1FDc25429F344E5810fE14e21E8C4e9E"
      ],
      "transaction": {
        "from": "0xf14f8199fd56c0e40860ca59a7196d0170269111",
        "to": "0x1f592b54a638d55056ad45ed810814f7880580c0",
        "gas": "0x2709e",
        "value": "0x0",
        "input": "0x01ca04aa0000000000000000000000002b21322dfa81fcf928b0ad3e1648e5a0ac62e115000000000000000000000000d2e4bcbdbdc94f42a0326964e8cec81c6fecf2fb0000000000000000000000000000000000000000000000000000000000000bb8000000000000000000000000000000000000000000000000000000000000003c0000000000000000000000001f592b54a638d55056ad45ed810814f7880580c00000000000000000000000000000000000000000000000000000000000000000000000000000000000000000b2c25e8f64236e374283f82f6dfc5f362a78b5d10000000000000000000000002b21322dfa81fcf928b0ad3e1648e5a0ac62e115000000000000000000000000000000000000000000000000000000006a50090d0000000000000000000000002c36b42b1fdc25429f344e5810fe14e21e8c4e9e",
        "nonce": "0x2c",
        "chainId": "0x515"
      },
      "additionalContracts": [],
      "isFixedGasLimit": false
    }
  ],
  "receipts": [
    {
      "status": "0x1",
      "cumulativeGasUsed": "0x88f0d",
      "logs": [
        {
          "address": "0x1f592b54a638d55056ad45ed810814f7880580c0",
          "topics": [
            "0xc5b82de3bda09c97d07bd81223799e2c6d95c98cdd5b68fa51a221a4dbb703c9",
            "0x19477f7b51c43d9111cf5623710c8e3230bbbd96522a68df321a8a4a7d646f7c"
          ],
          "data": "0x0000000000000000000000000000000000000000000000000000000000000001000000000000000000000000000000000000000000000000000000006a50090d",
          "blockHash": "0x90f0fc7a767e63964299605e6405f034d94006c037d886fc17ef48b43e6fea93",
          "blockNumber": "0x33c57fc",
          "blockTimestamp": "0x6a2a0548",
          "transactionHash": "0xb3f8895e26e202010433734adf32fa12e01b1dbbafea4f0de617d2b8bfdbfa02",
          "transactionIndex": "0x6",
          "logIndex": "0x4",
          "removed": false
        }
      ],
      "logsBloom": "0x02000000000000000000000000000000000000000000000000000000000000000000000000000000000000000000000000000000000000000000000000000000000040000000000000000000000000000000000000000000000000000000000000000000000000000000000000000000000000000001000000000000000000000000000000000000000080000040000002200000000000000000000000000000000000000000000000000000000000000000000000000000000000000000000000000000000000000000000000000000000000020000000000000000000000000000000000000000000000000000000000000000000100000000000000000000",
      "type": "0x2",
      "transactionHash": "0xb3f8895e26e202010433734adf32fa12e01b1dbbafea4f0de617d2b8bfdbfa02",
      "transactionIndex": "0x6",
      "blockHash": "0x90f0fc7a767e63964299605e6405f034d94006c037d886fc17ef48b43e6fea93",
      "blockNumber": "0x33c57fc",
      "gasUsed": "0x1c443",
      "effectiveGasPrice": "0x7a121",
      "blobGasUsed": "0x10fe0",
      "from": "0xf14f8199fd56c0e40860ca59a7196d0170269111",
      "to": "0x1f592b54a638d55056ad45ed810814f7880580c0",
      "contractAddress": null,
      "daFootprintGasScalar": "0x190",
      "l1BaseFeeScalar": "0x7d0",
      "l1BlobBaseFee": "0x57701b6",
      "l1BlobBaseFeeScalar": "0xdbba0",
      "l1Fee": "0x55c0272c2",
      "l1GasPrice": "0x5c9d3ae5",
      "l1GasUsed": "0xae1"
    },
    {
      "status": "0x1",
      "cumulativeGasUsed": "0xa5344",
      "logs": [
        {
          "address": "0x1f592b54a638d55056ad45ed810814f7880580c0",
          "topics": [
            "0xc5b82de3bda09c97d07bd81223799e2c6d95c98cdd5b68fa51a221a4dbb703c9",
            "0x88b76d7a883ccafd9c2a9490212af6bb256d516172d7a39bb7d1e985f267ed21"
          ],
          "data": "0x0000000000000000000000000000000000000000000000000000000000000000000000000000000000000000000000000000000000000000000000006a50090d",
          "blockHash": "0x90f0fc7a767e63964299605e6405f034d94006c037d886fc17ef48b43e6fea93",
          "blockNumber": "0x33c57fc",
          "blockTimestamp": "0x6a2a0548",
          "transactionHash": "0x0891719a98eb81d1feaec2bdc8186419619d5dbd3426a2abbdbecc943eff68cd",
          "transactionIndex": "0x7",
          "logIndex": "0x5",
          "removed": false
        }
      ],
      "logsBloom": "0x02000000000000000000000000000000000000000000000000000000000000000000000000000000000000000000000000000000000000000000000000000010000040000000000000000000000000000000000000000000000000000000000000000000000000000000000000000000000000000101000000000000000000000000000000000000000080000040000002000000000000000000000000000000000000000000000000000000000000000000000000000000000000000000000000000000000000000000000000000000000000000000000000000000000000000000000000000010000000000000000000000000000000000000000000000000",
      "type": "0x2",
      "transactionHash": "0x0891719a98eb81d1feaec2bdc8186419619d5dbd3426a2abbdbecc943eff68cd",
      "transactionIndex": "0x7",
      "blockHash": "0x90f0fc7a767e63964299605e6405f034d94006c037d886fc17ef48b43e6fea93",
      "blockNumber": "0x33c57fc",
      "gasUsed": "0x1c437",
      "effectiveGasPrice": "0x7a121",
      "blobGasUsed": "0x10810",
      "from": "0xf14f8199fd56c0e40860ca59a7196d0170269111",
      "to": "0x1f592b54a638d55056ad45ed810814f7880580c0",
      "contractAddress": null,
      "daFootprintGasScalar": "0x190",
      "l1BaseFeeScalar": "0x7d0",
      "l1BlobBaseFee": "0x57701b6",
      "l1BlobBaseFeeScalar": "0xdbba0",
      "l1Fee": "0x53b0afe78",
      "l1GasPrice": "0x5c9d3ae5",
      "l1GasUsed": "0xa9e"
    }
  ],
  "libraries": [],
  "pending": [],
  "returns": {},
  "timestamp": 1781138760407,
  "chain": 1301,
  "commit": "14275e4"
}