{
  "transactions": [
    {
      "hash": "0x6d321c9ca9b8ed540b3daa4182408be327a726a67c021d0983e7a831f0dcdb63",
      "transactionType": "CALL",
      "contractName": null,
      "contractAddress": "0x2b21322dfa81fcf928b0ad3e1648e5a0ac62e115",
      "function": "approve(address,uint256)",
      "arguments": [
        "0x000000000022D473030F116dDEE9F6B43aC78BA3",
        "115792089237316195423570985008687907853269984665640564039457584007913129639935"
      ],
      "transaction": {
        "from": "0xf14f8199fd56c0e40860ca59a7196d0170269111",
        "to": "0x2b21322dfa81fcf928b0ad3e1648e5a0ac62e115",
        "gas": "0x966c",
        "value": "0x0",
        "input": "0x095ea7b3000000000000000000000000000000000022d473030f116ddee9f6b43ac78ba3ffffffffffffffffffffffffffffffffffffffffffffffffffffffffffffffff",
        "nonce": "0x2d",
        "chainId": "0x515"
      },
      "additionalContracts": [],
      "isFixedGasLimit": false
    },
    {
      "hash": "0x5cd08221819b5312bfa961a0356469d911eb44cb9215b922a2553aa978d09b70",
      "transactionType": "CALL",
      "contractName": null,
      "contractAddress": "0x000000000022d473030f116ddee9f6b43ac78ba3",
      "function": "approve(address,address,uint160,uint48)",
      "arguments": [
        "0x2B21322dfA81FcF928B0ad3e1648E5A0aC62E115",
        "0xf969Aee60879C54bAAed9F3eD26147Db216Fd664",
        "1461501637330902918203684832716283019655932542975",
        "281474976710655"
      ],
      "transaction": {
        "from": "0xf14f8199fd56c0e40860ca59a7196d0170269111",
        "to": "0x000000000022d473030f116ddee9f6b43ac78ba3",
        "gas": "0x96a0",
        "value": "0x0",
        "input": "0x87517c450000000000000000000000002b21322dfa81fcf928b0ad3e1648e5a0ac62e115000000000000000000000000f969aee60879c54baaed9f3ed26147db216fd664000000000000000000000000ffffffffffffffffffffffffffffffffffffffff0000000000000000000000000000000000000000000000000000ffffffffffff",
        "nonce": "0x2e",
        "chainId": "0x515"
      },
      "additionalContracts": [],
      "isFixedGasLimit": false
    },
    {
      "hash": "0xe5984581c2d64b37bf746843d69909caedbd679f23da5980a8724c21feda23d1",
      "transactionType": "CALL",
      "contractName": null,
      "contractAddress": "0xd2e4bcbdbdc94f42a0326964e8cec81c6fecf2fb",
      "function": "approve(address,uint256)",
      "arguments": [
        "0x000000000022D473030F116dDEE9F6B43aC78BA3",
        "115792089237316195423570985008687907853269984665640564039457584007913129639935"
      ],
      "transaction": {
        "from": "0xf14f8199fd56c0e40860ca59a7196d0170269111",
        "to": "0xd2e4bcbdbdc94f42a0326964e8cec81c6fecf2fb",
        "gas": "0x962f",
        "value": "0x0",
        "input": "0x095ea7b3000000000000000000000000000000000022d473030f116ddee9f6b43ac78ba3ffffffffffffffffffffffffffffffffffffffffffffffffffffffffffffffff",
        "nonce": "0x2f",
        "chainId": "0x515"
      },
      "additionalContracts": [],
      "isFixedGasLimit": false
    },
    {
      "hash": "0xcc3b98d861c89a725b3adaf52f66e5a6acb7f31964623dc7f8ae4d3f8e30db89",
      "transactionType": "CALL",
      "contractName": null,
      "contractAddress": "0x000000000022d473030f116ddee9f6b43ac78ba3",
      "function": "approve(address,address,uint160,uint48)",
      "arguments": [
        "0xD2E4BCBdbdc94f42A0326964E8CEC81c6fECf2Fb",
        "0xf969Aee60879C54bAAed9F3eD26147Db216Fd664",
        "1461501637330902918203684832716283019655932542975",
        "281474976710655"
      ],
      "transaction": {
        "from": "0xf14f8199fd56c0e40860ca59a7196d0170269111",
        "to": "0x000000000022d473030f116ddee9f6b43ac78ba3",
        "gas": "0x96a0",
        "value": "0x0",
        "input": "0x87517c45000000000000000000000000d2e4bcbdbdc94f42a0326964e8cec81c6fecf2fb000000000000000000000000f969aee60879c54baaed9f3ed26147db216fd664000000000000000000000000ffffffffffffffffffffffffffffffffffffffff0000000000000000000000000000000000000000000000000000ffffffffffff",
        "nonce": "0x30",
        "chainId": "0x515"
      },
      "additionalContracts": [],
      "isFixedGasLimit": false
    },
    {
      "hash": "0xf69224866164180b56fc522b13837c5b63aab9b994c66685cf197bb7f07f3974",
      "transactionType": "CALL",
      "contractName": null,
      "contractAddress": "0xf969aee60879c54baaed9f3ed26147db216fd664",
      "function": "multicall(bytes[])",
      "arguments": [
        "[0xf70204050000000000000000000000002b21322dfa81fcf928b0ad3e1648e5a0ac62e115000000000000000000000000d2e4bcbdbdc94f42a0326964e8cec81c6fecf2fb0000000000000000000000000000000000000000000000000000000000000bb8000000000000000000000000000000000000000000000000000000000000003c0000000000000000000000001f592b54a638d55056ad45ed810814f7880580c0000000000000000000000000000000000000000100000000000000000000000000000000000000000000000000000000000000000000000000000000000000e00000000000000000000000000000000000000000000000000000000000000000, 0xdd46508f0000000000000000000000000000000000000000000000000000000000000040000000000000000000000000000000000000000000000000000000006a2a157f0000000000000000000000000000000000000000000000000000000000000400000000000000000000000000000000000000000000000000000000000000004000000000000000000000000000000000000000000000000000000000000000800000000000000000000000000000000000000000000000000000000000000004020d14140000000000000000000000000000000000000000000000000000000000000000000000000000000000000000000000000000000000000000000000040000000000000000000000000000000000000000000000000000000000000080000000000000000000000000000000000000000000000000000000000000024000000000000000000000000000000000000000000000000000000000000002a0000000000000000000000000000000000000000000000000000000000000030000000000000000000000000000000000000000000000000000000000000001a00000000000000000000000002b21322dfa81fcf928b0ad3e1648e5a0ac62e115000000000000000000000000d2e4bcbdbdc94f42a0326964e8cec81c6fecf2fb0000000000000000000000000000000000000000000000000000000000000bb8000000000000000000000000000000000000000000000000000000000000003c0000000000000000000000001f592b54a638d55056ad45ed810814f7880580c0ffffffffffffffffffffffffffffffffffffffffffffffffffffffffffff5038000000000000000000000000000000000000000000000000000000000000afc800000000000000000000000000000000000000000000001e4c8447f6c98cd59400000000000000000000000000000000000000000000001b1ae4d6e2ef50000100000000000000000000000000000000000000000000001b1ae4d6e2ef500001000000000000000000000000f14f8199fd56c0e40860ca59a7196d01702691110000000000000000000000000000000000000000000000000000000000000180000000000000000000000000000000000000000000000000000000000000000000000000000000000000000000000000000000000000000000000000000000400000000000000000000000002b21322dfa81fcf928b0ad3e1648e5a0ac62e115000000000000000000000000d2e4bcbdbdc94f42a0326964e8cec81c6fecf2fb00000000000000000000000000000000000000000000000000000000000000400000000000000000000000002b21322dfa81fcf928b0ad3e1648e5a0ac62e115000000000000000000000000f14f8199fd56c0e40860ca59a7196d01702691110000000000000000000000000000000000000000000000000000000000000040000000000000000000000000d2e4bcbdbdc94f42a0326964e8cec81c6fecf2fb000000000000000000000000f14f8199fd56c0e40860ca59a7196d0170269111]"
      ],
      "transaction": {
        "from": "0xf14f8199fd56c0e40860ca59a7196d0170269111",
        "to": "0xf969aee60879c54baaed9f3ed26147db216fd664",
        "gas": "0x9880d",
        "value": "0x0",
        "input": "0xac9650d800000000000000000000000000000000000000000000000000000000000000200000000000000000000000000000000000000000000000000000000000000002000000000000000000000000000000000000000000000000000000000000004000000000000000000000000000000000000000000000000000000000000001800000000000000000000000000000000000000000000000000000000000000104f70204050000000000000000000000002b21322dfa81fcf928b0ad3e1648e5a0ac62e115000000000000000000000000d2e4bcbdbdc94f42a0326964e8cec81c6fecf2fb0000000000000000000000000000000000000000000000000000000000000bb8000000000000000000000000000000000000000000000000000000000000003c0000000000000000000000001f592b54a638d55056ad45ed810814f7880580c0000000000000000000000000000000000000000100000000000000000000000000000000000000000000000000000000000000000000000000000000000000e00000000000000000000000000000000000000000000000000000000000000000000000000000000000000000000000000000000000000000000000000000000000000000000000000000000000000000000000000000000000000464dd46508f0000000000000000000000000000000000000000000000000000000000000040000000000000000000000000000000000000000000000000000000006a2a157f0000000000000000000000000000000000000000000000000000000000000400000000000000000000000000000000000000000000000000000000000000004000000000000000000000000000000000000000000000000000000000000000800000000000000000000000000000000000000000000000000000000000000004020d14140000000000000000000000000000000000000000000000000000000000000000000000000000000000000000000000000000000000000000000000040000000000000000000000000000000000000000000000000000000000000080000000000000000000000000000000000000000000000000000000000000024000000000000000000000000000000000000000000000000000000000000002a0000000000000000000000000000000000000000000000000000000000000030000000000000000000000000000000000000000000000000000000000000001a00000000000000000000000002b21322dfa81fcf928b0ad3e1648e5a0ac62e115000000000000000000000000d2e4bcbdbdc94f42a0326964e8cec81c6fecf2fb0000000000000000000000000000000000000000000000000000000000000bb8000000000000000000000000000000000000000000000000000000000000003c0000000000000000000000001f592b54a638d55056ad45ed810814f7880580c0ffffffffffffffffffffffffffffffffffffffffffffffffffffffffffff5038000000000000000000000000000000000000000000000000000000000000afc800000000000000000000000000000000000000000000001e4c8447f6c98cd59400000000000000000000000000000000000000000000001b1ae4d6e2ef50000100000000000000000000000000000000000000000000001b1ae4d6e2ef500001000000000000000000000000f14f8199fd56c0e40860ca59a7196d01702691110000000000000000000000000000000000000000000000000000000000000180000000000000000000000000000000000000000000000000000000000000000000000000000000000000000000000000000000000000000000000000000000400000000000000000000000002b21322dfa81fcf928b0ad3e1648e5a0ac62e115000000000000000000000000d2e4bcbdbdc94f42a0326964e8cec81c6fecf2fb00000000000000000000000000000000000000000000000000000000000000400000000000000000000000002b21322dfa81fcf928b0ad3e1648e5a0ac62e115000000000000000000000000f14f8199fd56c0e40860ca59a7196d01702691110000000000000000000000000000000000000000000000000000000000000040000000000000000000000000d2e4bcbdbdc94f42a0326964e8cec81c6fecf2fb000000000000000000000000f14f8199fd56c0e40860ca59a7196d017026911100000000000000000000000000000000000000000000000000000000",
        "nonce": "0x31",
        "chainId": "0x515"
      },
      "additionalContracts": [],
      "isFixedGasLimit": false
    },
    {
      "hash": "0x972755b5d43aefd41b012c1575e853fca8c139e6a7975224607fb40eadccb74b",
      "transactionType": "CALL",
      "contractName": null,
      "contractAddress": "0x1f592b54a638d55056ad45ed810814f7880580c0",
      "function": "setUnderlyingPrice(uint256)",
      "arguments": [
        "500000000000000000"
      ],
      "transaction": {
        "from": "0xf14f8199fd56c0e40860ca59a7196d0170269111",
        "to": "0x1f592b54a638d55056ad45ed810814f7880580c0",
        "gas": "0x807d",
        "value": "0x0",
        "input": "0x57aefad200000000000000000000000000000000000000000000000006f05b59d3b20000",
        "nonce": "0x32",
        "chainId": "0x515"
      },
      "additionalContracts": [],
      "isFixedGasLimit": false
    },
    {
      "hash": "0x8cf65123a03f5e8f606928068ae47aa574f7e032c9ce804eb72ccf9f111ec475",
      "transactionType": "CALL",
      "contractName": null,
      "contractAddress": "0xd2e4bcbdbdc94f42a0326964e8cec81c6fecf2fb",
      "function": "approve(address,uint256)",
      "arguments": [
        "0x9cD2b0a732dd5e023a5539921e0FD1c30E198Dba",
        "115792089237316195423570985008687907853269984665640564039457584007913129639935"
      ],
      "transaction": {
        "from": "0xf14f8199fd56c0e40860ca59a7196d0170269111",
        "to": "0xd2e4bcbdbdc94f42a0326964e8cec81c6fecf2fb",
        "gas": "0x8e29",
        "value": "0x0",
        "input": "0x095ea7b30000000000000000000000009cd2b0a732dd5e023a5539921e0fd1c30e198dbaffffffffffffffffffffffffffffffffffffffffffffffffffffffffffffffff",
        "nonce": "0x33",
        "chainId": "0x515"
      },
      "additionalContracts": [],
      "isFixedGasLimit": false
    },
    {
      "hash": "0xa8beb45e9e68c265a336d72bfcb0f978b9e24f97b6d707b0db202e6ae3e840f7",
      "transactionType": "CALL",
      "contractName": null,
      "contractAddress": "0x9cd2b0a732dd5e023a5539921e0fd1c30e198dba",
      "function": "swapExactTokensForTokens(uint256,uint256,bool,(address,address,uint24,int24,address),bytes,address,uint256)",
      "arguments": [
        "1000000000000000",
        "0",
        "false",
        "(0x2B21322dfA81FcF928B0ad3e1648E5A0aC62E115, 0xD2E4BCBdbdc94f42A0326964E8CEC81c6fECf2Fb, 3000, 60, 0x1f592B54a638d55056Ad45ed810814F7880580c0)",
        "0x",
        "0xf14f8199fd56C0E40860Ca59A7196D0170269111",
        "1781139911"
      ],
      "transaction": {
        "from": "0xf14f8199fd56c0e40860ca59a7196d0170269111",
        "to": "0x9cd2b0a732dd5e023a5539921e0fd1c30e198dba",
        "gas": "0x41290",
        "value": "0x0",
        "input": "0xb1a0d57100000000000000000000000000000000000000000000000000038d7ea4c68000000000000000000000000000000000000000000000000000000000000000000000000000000000000000000000000000000000000000000000000000000000000000000000000000000000002b21322dfa81fcf928b0ad3e1648e5a0ac62e115000000000000000000000000d2e4bcbdbdc94f42a0326964e8cec81c6fecf2fb0000000000000000000000000000000000000000000000000000000000000bb8000000000000000000000000000000000000000000000000000000000000003c0000000000000000000000001f592b54a638d55056ad45ed810814f7880580c00000000000000000000000000000000000000000000000000000000000000160000000000000000000000000f14f8199fd56c0e40860ca59a7196d0170269111000000000000000000000000000000000000000000000000000000006a2a09c70000000000000000000000000000000000000000000000000000000000000000",
        "nonce": "0x34",
        "chainId": "0x515"
      },
      "additionalContracts": [],
      "isFixedGasLimit": false
    }
  ],
  "receipts": [
    {
      "status": "0x1",
      "cumulativeGasUsed": "0x4514d",
      "logs": [
        {
          "address": "0x2b21322dfa81fcf928b0ad3e1648e5a0ac62e115",
          "topics": [
            "0x8c5be1e5ebec7d5bd14f71427d1e84f3dd0314c0f7b2291e5b200ac8c7c3b925",
            "0x000000000000000000000000f14f8199fd56c0e40860ca59a7196d0170269111",
            "0x000000000000000000000000000000000022d473030f116ddee9f6b43ac78ba3"
          ],
          "data": "0xffffffffffffffffffffffffffffffffffffffffffffffffffffffffffffffff",
          "blockHash": "0x5ebac6f93bc869ccdf9581d8d11d6bd772d6acf86b502e6ab047e301dbfe6e5b",
          "blockNumber": "0x33c5a41",
          "blockTimestamp": "0x6a2a078d",
          "transactionHash": "0x6d321c9ca9b8ed540b3daa4182408be327a726a67c021d0983e7a831f0dcdb63",
          "transactionIndex": "0x4",
          "logIndex": "0x2",
          "removed": false
        }
      ],
      "logsBloom": "0x00000000000000000000000000000000000000000000000000000000000000000000000000000000000000000000000000040000802000000000000000200000000000000000000000004000000000000000000000000800000000000000000000000000000000000000000000000000000000000000400000000000000000000002000000000000000000000000000000000000000000000000100000000000020000000000000000000000000000000000000000000000000000000000000000000000000000000000000000000000000000000000000000000000000000000010000000000000000000000000000000000000000000002000000000000000",
      "type": "0x2",
      "transactionHash": "0x6d321c9ca9b8ed540b3daa4182408be327a726a67c021d0983e7a831f0dcdb63",
      "transactionIndex": "0x4",
      "blockHash": "0x5ebac6f93bc869ccdf9581d8d11d6bd772d6acf86b502e6ab047e301dbfe6e5b",
      "blockNumber": "0x33c5a41",
      "gasUsed": "0x66db",
      "effectiveGasPrice": "0x7a121",
      "blobGasUsed": "0x9c40",
      "from": "0xf14f8199fd56c0e40860ca59a7196d0170269111",
      "to": "0x2b21322dfa81fcf928b0ad3e1648e5a0ac62e115",
      "contractAddress": null,
      "daFootprintGasScalar": "0x190",
      "l1BaseFeeScalar": "0x7d0",
      "l1BlobBaseFee": "0x60b9ebf",
      "l1BlobBaseFeeScalar": "0xdbba0",
      "l1Fee": "0x35b807b4f",
      "l1GasPrice": "0x629155cd",
      "l1GasUsed": "0x640"
    },
    {
      "status": "0x1",
      "cumulativeGasUsed": "0x79ebf",
      "logs": [
        {
          "address": "0x000000000022d473030f116ddee9f6b43ac78ba3",
          "topics": [
            "0xda9fa7c1b00402c17d0161b249b1ab8bbec047c5a52207b9c112deffd817036b",
            "0x000000000000000000000000f14f8199fd56c0e40860ca59a7196d0170269111",
            "0x0000000000000000000000002b21322dfa81fcf928b0ad3e1648e5a0ac62e115",
            "0x000000000000000000000000f969aee60879c54baaed9f3ed26147db216fd664"
          ],
          "data": "0x000000000000000000000000ffffffffffffffffffffffffffffffffffffffff0000000000000000000000000000000000000000000000000000ffffffffffff",
          "blockHash": "0x5ebac6f93bc869ccdf9581d8d11d6bd772d6acf86b502e6ab047e301dbfe6e5b",
          "blockNumber": "0x33c5a41",
          "blockTimestamp": "0x6a2a078d",
          "transactionHash": "0x5cd08221819b5312bfa961a0356469d911eb44cb9215b922a2553aa978d09b70",
          "transactionIndex": "0x7",
          "logIndex": "0x5",
          "removed": false
        }
      ],
      "logsBloom": "0x00010000000000000000000000000000000000000000000000000000000000000000000000000000000000000000000000000000000000000000000000080000000000000000000000000000000000000000000000000000000000001000000000000000000000000000000000000000000000020040000000000000000000000022040000000000000000000000000000000000000000000000100000000000000000000000000000000000000000000000000000000000000000080000000000000000000000000000000000000000000000000000000040000000000000000000000000000000000000000000000000000000000000002000000000002440",
      "type": "0x2",
      "transactionHash": "0x5cd08221819b5312bfa961a0356469d911eb44cb9215b922a2553aa978d09b70",
      "transactionIndex": "0x7",
      "blockHash": "0x5ebac6f93bc869ccdf9581d8d11d6bd772d6acf86b502e6ab047e301dbfe6e5b",
      "blockNumber": "0x33c5a41",
      "gasUsed": "0x6d0e",
      "effectiveGasPrice": "0x7a121",
      "blobGasUsed": "0xa730",
      "from": "0xf14f8199fd56c0e40860ca59a7196d0170269111",
      "to": "0x000000000022d473030f116ddee9f6b43ac78ba3",
      "contractAddress": null,
      "daFootprintGasScalar": "0x190",
      "l1BaseFeeScalar": "0x7d0",
      "l1BlobBaseFee": "0x60b9ebf",
      "l1BlobBaseFeeScalar": "0xdbba0",
      "l1Fee": "0x3a020c151",
      "l1GasPrice": "0x629155cd",
      "l1GasUsed": "0x6bf"
    },
    {
      "status": "0x1",
      "cumulativeGasUsed": "0x80570",
      "logs": [
        {
          "address": "0xd2e4bcbdbdc94f42a0326964e8cec81c6fecf2fb",
          "topics": [
            "0x8c5be1e5ebec7d5bd14f71427d1e84f3dd0314c0f7b2291e5b200ac8c7c3b925",
            "0x000000000000000000000000f14f8199fd56c0e40860ca59a7196d0170269111",
            "0x000000000000000000000000000000000022d473030f116ddee9f6b43ac78ba3"
          ],
          "data": "0xffffffffffffffffffffffffffffffffffffffffffffffffffffffffffffffff",
          "blockHash": "0x5ebac6f93bc869ccdf9581d8d11d6bd772d6acf86b502e6ab047e301dbfe6e5b",
          "blockNumber": "0x33c5a41",
          "blockTimestamp": "0x6a2a078d",
          "transactionHash": "0xe5984581c2d64b37bf746843d69909caedbd679f23da5980a8724c21feda23d1",
          "transactionIndex": "0x8",
          "logIndex": "0x6",
          "removed": false
        }
      ],
      "logsBloom": "0x00000000000000000000000000000000000000000000000000000000000000000800000000000000000000000000000000000000800000000000000000200000000000000000000000004000000008000000000000000800000000000000000000000000000000000000000000000000000000000000000000000000000000000002000000000000000000000000000000000000000000000000100000000000020000000000000000000000000000000001000000000000000000000000000000000000000000000000000000000000000000000000000000000000000000000010000000000000000000000000000000000000000000002000000000000000",
      "type": "0x2",
      "transactionHash": "0xe5984581c2d64b37bf746843d69909caedbd679f23da5980a8724c21feda23d1",
      "transactionIndex": "0x8",
      "blockHash": "0x5ebac6f93bc869ccdf9581d8d11d6bd772d6acf86b502e6ab047e301dbfe6e5b",
      "blockNumber": "0x33c5a41",
      "gasUsed": "0x66b1",
      "effectiveGasPrice": "0x7a121",
      "blobGasUsed": "0x9c40",
      "from": "0xf14f8199fd56c0e40860ca59a7196d0170269111",
      "to": "0xd2e4bcbdbdc94f42a0326964e8cec81c6fecf2fb",
      "contractAddress": null,
      "daFootprintGasScalar": "0x190",
      "l1BaseFeeScalar": "0x7d0",
      "l1BlobBaseFee": "0x60b9ebf",
      "l1BlobBaseFeeScalar": "0xdbba0",
      "l1Fee": "0x35b807b4f",
      "l1GasPrice": "0x629155cd",
      "l1GasUsed": "0x640"
    },
    {
      "status": "0x1",
      "cumulativeGasUsed": "0x8727e",
      "logs": [
        {
          "address": "0x000000000022d473030f116ddee9f6b43ac78ba3",
          "topics": [
            "0xda9fa7c1b00402c17d0161b249b1ab8bbec047c5a52207b9c112deffd817036b",
            "0x000000000000000000000000f14f8199fd56c0e40860ca59a7196d0170269111",
            "0x000000000000000000000000d2e4bcbdbdc94f42a0326964e8cec81c6fecf2fb",
            "0x000000000000000000000000f969aee60879c54baaed9f3ed26147db216fd664"
          ],
          "data": "0x000000000000000000000000ffffffffffffffffffffffffffffffffffffffff0000000000000000000000000000000000000000000000000000ffffffffffff",
          "blockHash": "0x5ebac6f93bc869ccdf9581d8d11d6bd772d6acf86b502e6ab047e301dbfe6e5b",
          "blockNumber": "0x33c5a41",
          "blockTimestamp": "0x6a2a078d",
          "transactionHash": "0xcc3b98d861c89a725b3adaf52f66e5a6acb7f31964623dc7f8ae4d3f8e30db89",
          "transactionIndex": "0x9",
          "logIndex": "0x7",
          "removed": false
        }
      ],
      "logsBloom": "0x00010000000000000000000000000000000400000000000000000000000000000000000000000000000000000000000000000000000000000000000000080000000000000000000000000000000000000000000000000000000000001000000000000000000000000000000000000000000000000040000000000000000000000022000000000000000000000000000000000000000000000020100000000000000000000000000000000000000000000000000000000000000000080000000000000000000000000000000000000000000000000000000040000000000000000000000000000000000000000000000040000000000000002000000000002400",
      "type": "0x2",
      "transactionHash": "0xcc3b98d861c89a725b3adaf52f66e5a6acb7f31964623dc7f8ae4d3f8e30db89",
      "transactionIndex": "0x9",
      "blockHash": "0x5ebac6f93bc869ccdf9581d8d11d6bd772d6acf86b502e6ab047e301dbfe6e5b",
      "blockNumber": "0x33c5a41",
      "gasUsed": "0x6d0e",
      "effectiveGasPrice": "0x7a121",
      "blobGasUsed": "0xa730",
      "from": "0xf14f8199fd56c0e40860ca59a7196d0170269111",
      "to": "0x000000000022d473030f116ddee9f6b43ac78ba3",
      "contractAddress": null,
      "daFootprintGasScalar": "0x190",
      "l1BaseFeeScalar": "0x7d0",
      "l1BlobBaseFee": "0x60b9ebf",
      "l1BlobBaseFeeScalar": "0xdbba0",
      "l1Fee": "0x3a020c151",
      "l1GasPrice": "0x629155cd",
      "l1GasUsed": "0x6bf"
    },
    {
      "status": "0x1",
      "cumulativeGasUsed": "0xf590d",
      "logs": [
        {
          "address": "0x00b036b58a818b1bc34d502d3fe730db729e62ac",
          "topics": [
            "0xdd466e674ea557f56295e2d0218a125ea4b4f0f6f3307b95f85e6110838d6438",
            "0x88b76d7a883ccafd9c2a9490212af6bb256d516172d7a39bb7d1e985f267ed21",
            "0x0000000000000000000000002b21322dfa81fcf928b0ad3e1648e5a0ac62e115",
            "0x000000000000000000000000d2e4bcbdbdc94f42a0326964e8cec81c6fecf2fb"
          ],
          "data": "0x0000000000000000000000000000000000000000000000000000000000000bb8000000000000000000000000000000000000000000000000000000000000003c0000000000000000000000001f592b54a638d55056ad45ed810814f7880580c000000000000000000000000000000000000000010000000000000000000000000000000000000000000000000000000000000000000000000000000000000000",
          "blockHash": "0x5ebac6f93bc869ccdf9581d8d11d6bd772d6acf86b502e6ab047e301dbfe6e5b",
          "blockNumber": "0x33c5a41",
          "blockTimestamp": "0x6a2a078d",
          "transactionHash": "0xf69224866164180b56fc522b13837c5b63aab9b994c66685cf197bb7f07f3974",
          "transactionIndex": "0xa",
          "logIndex": "0x8",
          "removed": false
        },
        {
          "address": "0xf969aee60879c54baaed9f3ed26147db216fd664",
          "topics": [
            "0xddf252ad1be2c89b69c2b068fc378daa952ba7f163c4a11628f55a4df523b3ef",
            "0x0000000000000000000000000000000000000000000000000000000000000000",
            "0x000000000000000000000000f14f8199fd56c0e40860ca59a7196d0170269111",
            "0x0000000000000000000000000000000000000000000000000000000000001e44"
          ],
          "data": "0x",
          "blockHash": "0x5ebac6f93bc869ccdf9581d8d11d6bd772d6acf86b502e6ab047e301dbfe6e5b",
          "blockNumber": "0x33c5a41",
          "blockTimestamp": "0x6a2a078d",
          "transactionHash": "0xf69224866164180b56fc522b13837c5b63aab9b994c66685cf197bb7f07f3974",
          "transactionIndex": "0xa",
          "logIndex": "0x9",
          "removed": false
        },
        {
          "address": "0x00b036b58a818b1bc34d502d3fe730db729e62ac",
          "topics": [
            "0xf208f4912782fd25c7f114ca3723a2d5dd6f3bcc3ac8db5af63baa85f711d5ec",
            "0x88b76d7a883ccafd9c2a9490212af6bb256d516172d7a39bb7d1e985f267ed21",
            "0x000000000000000000000000f969aee60879c54baaed9f3ed26147db216fd664"
          ],
          "data": "0xffffffffffffffffffffffffffffffffffffffffffffffffffffffffffff5038000000000000000000000000000000000000000000000000000000000000afc800000000000000000000000000000000000000000000001e4c8447f6c98cd5940000000000000000000000000000000000000000000000000000000000001e44",
          "blockHash": "0x5ebac6f93bc869ccdf9581d8d11d6bd772d6acf86b502e6ab047e301dbfe6e5b",
          "blockNumber": "0x33c5a41",
          "blockTimestamp": "0x6a2a078d",
          "transactionHash": "0xf69224866164180b56fc522b13837c5b63aab9b994c66685cf197bb7f07f3974",
          "transactionIndex": "0xa",
          "logIndex": "0xa",
          "removed": false
        },
        {
          "address": "0x2b21322dfa81fcf928b0ad3e1648e5a0ac62e115",
          "topics": [
            "0xddf252ad1be2c89b69c2b068fc378daa952ba7f163c4a11628f55a4df523b3ef",
            "0x000000000000000000000000f14f8199fd56c0e40860ca59a7196d0170269111",
            "0x00000000000000000000000000b036b58a818b1bc34d502d3fe730db729e62ac"
          ],
          "data": "0x00000000000000000000000000000000000000000000001b1ae4d6e2ef500000",
          "blockHash": "0x5ebac6f93bc869ccdf9581d8d11d6bd772d6acf86b502e6ab047e301dbfe6e5b",
          "blockNumber": "0x33c5a41",
          "blockTimestamp": "0x6a2a078d",
          "transactionHash": "0xf69224866164180b56fc522b13837c5b63aab9b994c66685cf197bb7f07f3974",
          "transactionIndex": "0xa",
          "logIndex": "0xb",
          "removed": false
        },
        {
          "address": "0xd2e4bcbdbdc94f42a0326964e8cec81c6fecf2fb",
          "topics": [
            "0xddf252ad1be2c89b69c2b068fc378daa952ba7f163c4a11628f55a4df523b3ef",
            "0x000000000000000000000000f14f8199fd56c0e40860ca59a7196d0170269111",
            "0x00000000000000000000000000b036b58a818b1bc34d502d3fe730db729e62ac"
          ],
          "data": "0x00000000000000000000000000000000000000000000001b1ae4d6e2ef500000",
          "blockHash": "0x5ebac6f93bc869ccdf9581d8d11d6bd772d6acf86b502e6ab047e301dbfe6e5b",
          "blockNumber": "0x33c5a41",
          "blockTimestamp": "0x6a2a078d",
          "transactionHash": "0xf69224866164180b56fc522b13837c5b63aab9b994c66685cf197bb7f07f3974",
          "transactionIndex": "0xa",
          "logIndex": "0xc",
          "removed": false
        }
      ],
      "logsBloom": "0x00200000000000000000000000000000000400000000000000000000000000000800000000000000000000000000000000040000003000000000000000000010000000000000000000000008000008000000000000000000000000001000000000000000020000000000000000004800000000020140400000000010000000000002040001000008000000000008000000000001000000000020100000200000000004004000004000000000000000000801000000000020000000000000000000000002080000000000000000000000000000000000000000000000000020004000000000000010000000000000000044000000000002002000000000002050",
      "type": "0x2",
      "transactionHash": "0xf69224866164180b56fc522b13837c5b63aab9b994c66685cf197bb7f07f3974",
      "transactionIndex": "0xa",
      "blockHash": "0x5ebac6f93bc869ccdf9581d8d11d6bd772d6acf86b502e6ab047e301dbfe6e5b",
      "blockNumber": "0x33c5a41",
      "gasUsed": "0x6e68f",
      "effectiveGasPrice": "0x7a121",
      "blobGasUsed": "0x20530",
      "from": "0xf14f8199fd56c0e40860ca59a7196d0170269111",
      "to": "0xf969aee60879c54baaed9f3ed26147db216fd664",
      "contractAddress": null,
      "daFootprintGasScalar": "0x190",
      "l1BaseFeeScalar": "0x7d0",
      "l1BlobBaseFee": "0x60b9ebf",
      "l1BlobBaseFeeScalar": "0xdbba0",
      "l1Fee": "0xb1fc966ca",
      "l1GasPrice": "0x629155cd",
      "l1GasUsed": "0x14b5"
    },
    {
      "status": "0x1",
      "cumulativeGasUsed": "0xfb614",
      "logs": [],
      "logsBloom": "0x00000000000000000000000000000000000000000000000000000000000000000000000000000000000000000000000000000000000000000000000000000000000000000000000000000000000000000000000000000000000000000000000000000000000000000000000000000000000000000000000000000000000000000000000000000000000000000000000000000000000000000000000000000000000000000000000000000000000000000000000000000000000000000000000000000000000000000000000000000000000000000000000000000000000000000000000000000000000000000000000000000000000000000000000000000000",
      "type": "0x2",
      "transactionHash": "0x972755b5d43aefd41b012c1575e853fca8c139e6a7975224607fb40eadccb74b",
      "transactionIndex": "0xb",
      "blockHash": "0x5ebac6f93bc869ccdf9581d8d11d6bd772d6acf86b502e6ab047e301dbfe6e5b",
      "blockNumber": "0x33c5a41",
      "gasUsed": "0x5d07",
      "effectiveGasPrice": "0x7a121",
      "blobGasUsed": "0x9c40",
      "from": "0xf14f8199fd56c0e40860ca59a7196d0170269111",
      "to": "0x1f592b54a638d55056ad45ed810814f7880580c0",
      "contractAddress": null,
      "daFootprintGasScalar": "0x190",
      "l1BaseFeeScalar": "0x7d0",
      "l1BlobBaseFee": "0x60b9ebf",
      "l1BlobBaseFeeScalar": "0xdbba0",
      "l1Fee": "0x35b807b4f",
      "l1GasPrice": "0x629155cd",
      "l1GasUsed": "0x640"
    },
    {
      "status": "0x1",
      "cumulativeGasUsed": "0x101d01",
      "logs": [
        {
          "address": "0xd2e4bcbdbdc94f42a0326964e8cec81c6fecf2fb",
          "topics": [
            "0x8c5be1e5ebec7d5bd14f71427d1e84f3dd0314c0f7b2291e5b200ac8c7c3b925",
            "0x000000000000000000000000f14f8199fd56c0e40860ca59a7196d0170269111",
            "0x0000000000000000000000009cd2b0a732dd5e023a5539921e0fd1c30e198dba"
          ],
          "data": "0xffffffffffffffffffffffffffffffffffffffffffffffffffffffffffffffff",
          "blockHash": "0x5ebac6f93bc869ccdf9581d8d11d6bd772d6acf86b502e6ab047e301dbfe6e5b",
          "blockNumber": "0x33c5a41",
          "blockTimestamp": "0x6a2a078d",
          "transactionHash": "0x8cf65123a03f5e8f606928068ae47aa574f7e032c9ce804eb72ccf9f111ec475",
          "transactionIndex": "0xc",
          "logIndex": "0xd",
          "removed": false
        }
      ],
      "logsBloom": "0x00000000000000000000000000000000000000004000000000000000000000000880000000000000000000000000000000000000000000000000000000200000000000000000000000000000000008000000000000000000000000000000000000000000000000000000000000000000000000000000000000000000000000000002000000000000000000000000000000000000000000000000100000000000020000000000000000000000000000000001080000000000000000000000000000000000000000000000000000000000000000000000000000000000000000000010000000000000000000000000000000000000000000002000000000000000",
      "type": "0x2",
      "transactionHash": "0x8cf65123a03f5e8f606928068ae47aa574f7e032c9ce804eb72ccf9f111ec475",
      "transactionIndex": "0xc",
      "blockHash": "0x5ebac6f93bc869ccdf9581d8d11d6bd772d6acf86b502e6ab047e301dbfe6e5b",
      "blockNumber": "0x33c5a41",
      "gasUsed": "0x66ed",
      "effectiveGasPrice": "0x7a121",
      "blobGasUsed": "0x9c40",
      "from": "0xf14f8199fd56c0e40860ca59a7196d0170269111",
      "to": "0xd2e4bcbdbdc94f42a0326964e8cec81c6fecf2fb",
      "contractAddress": null,
      "daFootprintGasScalar": "0x190",
      "l1BaseFeeScalar": "0x7d0",
      "l1BlobBaseFee": "0x60b9ebf",
      "l1BlobBaseFeeScalar": "0xdbba0",
      "l1Fee": "0x35b807b4f",
      "l1GasPrice": "0x629155cd",
      "l1GasUsed": "0x640"
    },
    {
      "status": "0x1",
      "cumulativeGasUsed": "0x130fce",
      "logs": [
        {
          "address": "0x1f592b54a638d55056ad45ed810814f7880580c0",
          "topics": [
            "0x04e05425a54ba115f69409e46008e331e83e80f00e32b630aa91e625d9dcbf9a",
            "0x88b76d7a883ccafd9c2a9490212af6bb256d516172d7a39bb7d1e985f267ed21"
          ],
          "data": "0x0000000000000000000000000000000000000000000000000000000000260180000000000000000000000000000000000000000000000000000000000000001e",
          "blockHash": "0x5ebac6f93bc869ccdf9581d8d11d6bd772d6acf86b502e6ab047e301dbfe6e5b",
          "blockNumber": "0x33c5a41",
          "blockTimestamp": "0x6a2a078d",
          "transactionHash": "0xa8beb45e9e68c265a336d72bfcb0f978b9e24f97b6d707b0db202e6ae3e840f7",
          "transactionIndex": "0xd",
          "logIndex": "0xe",
          "removed": false
        },
        {
          "address": "0x00b036b58a818b1bc34d502d3fe730db729e62ac",
          "topics": [
            "0x40e9cecb9f5f1f1c5b9c97dec2917b7ee92e57ba5563708daca94dd84ad7112f",
            "0x88b76d7a883ccafd9c2a9490212af6bb256d516172d7a39bb7d1e985f267ed21",
            "0x0000000000000000000000009cd2b0a732dd5e023a5539921e0fd1c30e198dba"
          ],
          "data": "0x00000000000000000000000000000000000000000000000000038ac3bcd63b6cfffffffffffffffffffffffffffffffffffffffffffffffffffc72815b398000000000000000000000000000000000000000000100001ded682b6f090089325200000000000000000000000000000000000000000000001e4c8447f6c98cd59400000000000000000000000000000000000000000000000000000000000000000000000000000000000000000000000000000000000000000000000000000bb8",
          "blockHash": "0x5ebac6f93bc869ccdf9581d8d11d6bd772d6acf86b502e6ab047e301dbfe6e5b",
          "blockNumber": "0x33c5a41",
          "blockTimestamp": "0x6a2a078d",
          "transactionHash": "0xa8beb45e9e68c265a336d72bfcb0f978b9e24f97b6d707b0db202e6ae3e840f7",
          "transactionIndex": "0xd",
          "logIndex": "0xf",
          "removed": false
        },
        {
          "address": "0x1f592b54a638d55056ad45ed810814f7880580c0",
          "topics": [
            "0x08c20bfcdf19e2a3f94554fe0c417f6f75676c55f66e4eeffa09ec02908355de"
          ],
          "data": "0x00000000000000000000000000000000000000000000000000000000000000000000000000000000000000000000000000000000000000000de0b9f24e56d42400000000000000000000000000000000000000000000000006f05b59d3b2000000000000000000000000000000000000000000000000000000000000000027100000000000000000000000000000000000000000000000000000000000000001",
          "blockHash": "0x5ebac6f93bc869ccdf9581d8d11d6bd772d6acf86b502e6ab047e301dbfe6e5b",
          "blockNumber": "0x33c5a41",
          "blockTimestamp": "0x6a2a078d",
          "transactionHash": "0xa8beb45e9e68c265a336d72bfcb0f978b9e24f97b6d707b0db202e6ae3e840f7",
          "transactionIndex": "0xd",
          "logIndex": "0x10",
          "removed": false
        },
        {
          "address": "0xd2e4bcbdbdc94f42a0326964e8cec81c6fecf2fb",
          "topics": [
            "0xddf252ad1be2c89b69c2b068fc378daa952ba7f163c4a11628f55a4df523b3ef",
            "0x000000000000000000000000f14f8199fd56c0e40860ca59a7196d0170269111",
            "0x00000000000000000000000000b036b58a818b1bc34d502d3fe730db729e62ac"
          ],
          "data": "0x00000000000000000000000000000000000000000000000000038d7ea4c68000",
          "blockHash": "0x5ebac6f93bc869ccdf9581d8d11d6bd772d6acf86b502e6ab047e301dbfe6e5b",
          "blockNumber": "0x33c5a41",
          "blockTimestamp": "0x6a2a078d",
          "transactionHash": "0xa8beb45e9e68c265a336d72bfcb0f978b9e24f97b6d707b0db202e6ae3e840f7",
          "transactionIndex": "0xd",
          "logIndex": "0x11",
          "removed": false
        },
        {
          "address": "0x2b21322dfa81fcf928b0ad3e1648e5a0ac62e115",
          "topics": [
            "0xddf252ad1be2c89b69c2b068fc378daa952ba7f163c4a11628f55a4df523b3ef",
            "0x00000000000000000000000000b036b58a818b1bc34d502d3fe730db729e62ac",
            "0x000000000000000000000000f14f8199fd56c0e40860ca59a7196d0170269111"
          ],
          "data": "0x00000000000000000000000000000000000000000000000000038ac3bcd63b6c",
          "blockHash": "0x5ebac6f93bc869ccdf9581d8d11d6bd772d6acf86b502e6ab047e301dbfe6e5b",
          "blockNumber": "0x33c5a41",
          "blockTimestamp": "0x6a2a078d",
          "transactionHash": "0xa8beb45e9e68c265a336d72bfcb0f978b9e24f97b6d707b0db202e6ae3e840f7",
          "transactionIndex": "0xd",
          "logIndex": "0x12",
          "removed": false
        }
      ],
      "logsBloom": "0x10000000000000000000000000000000000000004000000000000000000000000880000000000000000080000000000000040000043000000000000000000010000000000000000000000008000008000000000000000020000000000000000000080000000000000000000000004100000000000101400000000010000000000002000000000000000080000048000000000000000000000000100000000000000000000000000000000000000000080001080000000020000000000000000000000002000000000000000000000000000000000000000000000000000000000000000000000010004000000000000000000040000002002000000000000010",
      "type": "0x2",
      "transactionHash": "0xa8beb45e9e68c265a336d72bfcb0f978b9e24f97b6d707b0db202e6ae3e840f7",
      "transactionIndex": "0xd",
      "blockHash": "0x5ebac6f93bc869ccdf9581d8d11d6bd772d6acf86b502e6ab047e301dbfe6e5b",
      "blockNumber": "0x33c5a41",
      "gasUsed": "0x2f2cd",
      "effectiveGasPrice": "0x7a121",
      "blobGasUsed": "0x11f80",
      "from": "0xf14f8199fd56c0e40860ca59a7196d0170269111",
      "to": "0x9cd2b0a732dd5e023a5539921e0fd1c30e198dba",
      "contractAddress": null,
      "daFootprintGasScalar": "0x190",
      "l1BaseFeeScalar": "0x7d0",
      "l1BlobBaseFee": "0x60b9ebf",
      "l1BlobBaseFeeScalar": "0xdbba0",
      "l1Fee": "0x635955a37",
      "l1GasPrice": "0x629155cd",
      "l1GasUsed": "0xb8f"
    }
  ],
  "libraries": [],
  "pending": [],
  "returns": {},
  "timestamp": 1781139341767,
  "chain": 1301,
  "commit": "14275e4"
}