{
  "transactions": [
    {
      "hash": "0x0d0ed1cb2604b0cb8050bca3a1242addb7b86f92939abf6fe2f3da8e0bb2d76d",
      "transactionType": "CALL",
      "contractName": null,
      "contractAddress": "0xd2e4bcbdbdc94f42a0326964e8cec81c6fecf2fb",
      "function": "approve(address,uint256)",
      "arguments": [
        "0x9cD2b0a732dd5e023a5539921e0FD1c30E198Dba",
        "115792089237316195423570985008687907853269984665640564039457584007913129639935"
      ],
      "transaction": {
        "from": "0xf14f8199fd56c0e40860ca59a7196d0170269111",
        "to": "0xd2e4bcbdbdc94f42a0326964e8cec81c6fecf2fb",
        "gas": "0x10837",
        "value": "0x0",
        "input": "0x095ea7b30000000000000000000000009cd2b0a732dd5e023a5539921e0fd1c30e198dbaffffffffffffffffffffffffffffffffffffffffffffffffffffffffffffffff",
        "nonce": "0x26",
        "chainId": "0x515"
      },
      "additionalContracts": [],
      "isFixedGasLimit": false
    },
    {
      "hash": "0x5a160792025f12fc74228ca21d9dd173c50587704ab6147f095cc6fb91174980",
      "transactionType": "CALL",
      "contractName": null,
      "contractAddress": "0x9cd2b0a732dd5e023a5539921e0fd1c30e198dba",
      "function": "swapExactTokensForTokens(uint256,uint256,bool,(address,address,uint24,int24,address),bytes,address,uint256)",
      "arguments": [
        "10000000000000000",
        "0",
        "false",
        "(0xb2c25e8F64236E374283f82F6dFC5F362A78B5D1, 0xD2E4BCBdbdc94f42A0326964E8CEC81c6fECf2Fb, 3000, 60, 0x1f592B54a638d55056Ad45ed810814F7880580c0)",
        "0x",
        "0xf14f8199fd56C0E40860Ca59A7196D0170269111",
        "1781139220"
      ],
      "transaction": {
        "from": "0xf14f8199fd56c0e40860ca59a7196d0170269111",
        "to": "0x9cd2b0a732dd5e023a5539921e0fd1c30e198dba",
        "gas": "0x318c6",
        "value": "0x0",
        "input": "0xb1a0d571000000000000000000000000000000000000000000000000002386f26fc1000000000000000000000000000000000000000000000000000000000000000000000000000000000000000000000000000000000000000000000000000000000000000000000000000000000000b2c25e8f64236e374283f82f6dfc5f362a78b5d1000000000000000000000000d2e4bcbdbdc94f42a0326964e8cec81c6fecf2fb0000000000000000000000000000000000000000000000000000000000000bb8000000000000000000000000000000000000000000000000000000000000003c0000000000000000000000001f592b54a638d55056ad45ed810814f7880580c00000000000000000000000000000000000000000000000000000000000000160000000000000000000000000f14f8199fd56c0e40860ca59a7196d0170269111000000000000000000000000000000000000000000000000000000006a2a07140000000000000000000000000000000000000000000000000000000000000000",
        "nonce": "0x27",
        "chainId": "0x515"
      },
      "additionalContracts": [],
      "isFixedGasLimit": false
    },
    {
      "hash": "0x7b2b826d760e634d1f45be3607df055dbacd6f60ce9063d184ea2b1985983e29",
      "transactionType": "CALL",
      "contractName": null,
      "contractAddress": "0x1f592b54a638d55056ad45ed810814f7880580c0",
      "function": "setUnderlyingPrice(uint256)",
      "arguments": [
        "500000000000000000"
      ],
      "transaction": {
        "from": "0xf14f8199fd56c0e40860ca59a7196d0170269111",
        "to": "0x1f592b54a638d55056ad45ed810814f7880580c0",
        "gas": "0x8f99",
        "value": "0x0",
        "input": "0x57aefad200000000000000000000000000000000000000000000000006f05b59d3b20000",
        "nonce": "0x28",
        "chainId": "0x515"
      },
      "additionalContracts": [],
      "isFixedGasLimit": false
    },
    {
      "hash": "0x13d1c5ac27d8004391d90cf8829f9a41218985dc1216b4a86e028a5ed84b2d64",
      "transactionType": "CALL",
      "contractName": null,
      "contractAddress": "0xd2e4bcbdbdc94f42a0326964e8cec81c6fecf2fb",
      "function": "approve(address,uint256)",
      "arguments": [
        "0x9cD2b0a732dd5e023a5539921e0FD1c30E198Dba",
        "115792089237316195423570985008687907853269984665640564039457584007913129639935"
      ],
      "transaction": {
        "from": "0xf14f8199fd56c0e40860ca59a7196d0170269111",
        "to": "0xd2e4bcbdbdc94f42a0326964e8cec81c6fecf2fb",
        "gas": "0x8e29",
        "value": "0x0",
        "input": "0x095ea7b30000000000000000000000009cd2b0a732dd5e023a5539921e0fd1c30e198dbaffffffffffffffffffffffffffffffffffffffffffffffffffffffffffffffff",
        "nonce": "0x29",
        "chainId": "0x515"
      },
      "additionalContracts": [],
      "isFixedGasLimit": false
    },
    {
      "hash": "0x1506e3dca5d901941ed39b0306d283ad1442bb5bdf0f2f6b736abf1b971c3d4c",
      "transactionType": "CALL",
      "contractName": null,
      "contractAddress": "0x9cd2b0a732dd5e023a5539921e0fd1c30e198dba",
      "function": "swapExactTokensForTokens(uint256,uint256,bool,(address,address,uint24,int24,address),bytes,address,uint256)",
      "arguments": [
        "100000000000000000",
        "0",
        "false",
        "(0xb2c25e8F64236E374283f82F6dFC5F362A78B5D1, 0xD2E4BCBdbdc94f42A0326964E8CEC81c6fECf2Fb, 3000, 60, 0x1f592B54a638d55056Ad45ed810814F7880580c0)",
        "0x",
        "0xf14f8199fd56C0E40860Ca59A7196D0170269111",
        "1781139220"
      ],
      "transaction": {
        "from": "0xf14f8199fd56c0e40860ca59a7196d0170269111",
        "to": "0x9cd2b0a732dd5e023a5539921e0fd1c30e198dba",
        "gas": "0x2b779",
        "value": "0x0",
        "input": "0xb1a0d571000000000000000000000000000000000000000000000000016345785d8a000000000000000000000000000000000000000000000000000000000000000000000000000000000000000000000000000000000000000000000000000000000000000000000000000000000000b2c25e8f64236e374283f82f6dfc5f362a78b5d1000000000000000000000000d2e4bcbdbdc94f42a0326964e8cec81c6fecf2fb0000000000000000000000000000000000000000000000000000000000000bb8000000000000000000000000000000000000000000000000000000000000003c0000000000000000000000001f592b54a638d55056ad45ed810814f7880580c00000000000000000000000000000000000000000000000000000000000000160000000000000000000000000f14f8199fd56c0e40860ca59a7196d0170269111000000000000000000000000000000000000000000000000000000006a2a07140000000000000000000000000000000000000000000000000000000000000000",
        "nonce": "0x2a",
        "chainId": "0x515"
      },
      "additionalContracts": [],
      "isFixedGasLimit": false
    }
  ],
  "receipts": [
    {
      "status": "0x1",
      "cumulativeGasUsed": "0x32edd",
      "logs": [
        {
          "address": "0xd2e4bcbdbdc94f42a0326964e8cec81c6fecf2fb",
          "topics": [
            "0x8c5be1e5ebec7d5bd14f71427d1e84f3dd0314c0f7b2291e5b200ac8c7c3b925",
            "0x000000000000000000000000f14f8199fd56c0e40860ca59a7196d0170269111",
            "0x0000000000000000000000009cd2b0a732dd5e023a5539921e0fd1c30e198dba"
          ],
          "data": "0xffffffffffffffffffffffffffffffffffffffffffffffffffffffffffffffff",
          "blockHash": "0x16b07436922af9fd87fb59fe7ecd8540793e80e929a135c30e287f2ab0207387",
          "blockNumber": "0x33c5782",
          "blockTimestamp": "0x6a2a04ce",
          "transactionHash": "0x0d0ed1cb2604b0cb8050bca3a1242addb7b86f92939abf6fe2f3da8e0bb2d76d",
          "transactionIndex": "0x3",
          "logIndex": "0x1",
          "removed": false
        }
      ],
      "logsBloom": "0x00000000000000000000000000000000000000004000000000000000000000000880000000000000000000000000000000000000000000000000000000200000000000000000000000000000000008000000000000000000000000000000000000000000000000000000000000000000000000000000000000000000000000000002000000000000000000000000000000000000000000000000100000000000020000000000000000000000000000000001080000000000000000000000000000000000000000000000000000000000000000000000000000000000000000000010000000000000000000000000000000000000000000002000000000000000",
      "type": "0x2",
      "transactionHash": "0x0d0ed1cb2604b0cb8050bca3a1242addb7b86f92939abf6fe2f3da8e0bb2d76d",
      "transactionIndex": "0x3",
      "blockHash": "0x16b07436922af9fd87fb59fe7ecd8540793e80e929a135c30e287f2ab0207387",
      "blockNumber": "0x33c5782",
      "gasUsed": "0xb4a9",
      "effectiveGasPrice": "0x7a121",
      "blobGasUsed": "0x9c40",
      "from": "0xf14f8199fd56c0e40860ca59a7196d0170269111",
      "to": "0xd2e4bcbdbdc94f42a0326964e8cec81c6fecf2fb",
      "contractAddress": null,
      "daFootprintGasScalar": "0x190",
      "l1BaseFeeScalar": "0x7d0",
      "l1BlobBaseFee": "0x5123398",
      "l1BlobBaseFeeScalar": "0xdbba0",
      "l1Fee": "0x2cc5b2fe0",
      "l1GasPrice": "0x513c93e3",
      "l1GasUsed": "0x640"
    },
    {
      "status": "0x1",
      "cumulativeGasUsed": "0x49852",
      "logs": [
        {
          "address": "0x00b036b58a818b1bc34d502d3fe730db729e62ac",
          "topics": [
            "0x40e9cecb9f5f1f1c5b9c97dec2917b7ee92e57ba5563708daca94dd84ad7112f",
            "0x19477f7b51c43d9111cf5623710c8e3230bbbd96522a68df321a8a4a7d646f7c",
            "0x0000000000000000000000009cd2b0a732dd5e023a5539921e0fd1c30e198dba"
          ],
          "data": "0x00000000000000000000000000000000000000000000000000236b801c28a744ffffffffffffffffffffffffffffffffffffffffffffffffffdc790d903f0000000000000000000000000000000000000000000100012b4611b2565a055bf73800000000000000000000000000000000000000000000001e4c8447f6c98cd59400000000000000000000000000000000000000000000000000000000000000000000000000000000000000000000000000000000000000000000000000000bb8",
          "blockHash": "0xac47e0cd073bc37773339c8f3315fe41fc098215e45e29c22db6e51bdf2b2d2d",
          "blockNumber": "0x33c5783",
          "blockTimestamp": "0x6a2a04cf",
          "transactionHash": "0x5a160792025f12fc74228ca21d9dd173c50587704ab6147f095cc6fb91174980",
          "transactionIndex": "0x3",
          "logIndex": "0x1",
          "removed": false
        },
        {
          "address": "0xd2e4bcbdbdc94f42a0326964e8cec81c6fecf2fb",
          "topics": [
            "0xddf252ad1be2c89b69c2b068fc378daa952ba7f163c4a11628f55a4df523b3ef",
            "0x000000000000000000000000f14f8199fd56c0e40860ca59a7196d0170269111",
            "0x00000000000000000000000000b036b58a818b1bc34d502d3fe730db729e62ac"
          ],
          "data": "0x000000000000000000000000000000000000000000000000002386f26fc10000",
          "blockHash": "0xac47e0cd073bc37773339c8f3315fe41fc098215e45e29c22db6e51bdf2b2d2d",
          "blockNumber": "0x33c5783",
          "blockTimestamp": "0x6a2a04cf",
          "transactionHash": "0x5a160792025f12fc74228ca21d9dd173c50587704ab6147f095cc6fb91174980",
          "transactionIndex": "0x3",
          "logIndex": "0x2",
          "removed": false
        },
        {
          "address": "0xb2c25e8f64236e374283f82f6dfc5f362a78b5d1",
          "topics": [
            "0xddf252ad1be2c89b69c2b068fc378daa952ba7f163c4a11628f55a4df523b3ef",
            "0x00000000000000000000000000b036b58a818b1bc34d502d3fe730db729e62ac",
            "0x000000000000000000000000f14f8199fd56c0e40860ca59a7196d0170269111"
          ],
          "data": "0x00000000000000000000000000000000000000000000000000236b801c28a744",
          "blockHash": "0xac47e0cd073bc37773339c8f3315fe41fc098215e45e29c22db6e51bdf2b2d2d",
          "blockNumber": "0x33c5783",
          "blockTimestamp": "0x6a2a04cf",
          "transactionHash": "0x5a160792025f12fc74228ca21d9dd173c50587704ab6147f095cc6fb91174980",
          "transactionIndex": "0x3",
          "logIndex": "0x3",
          "removed": false
        }
      ],
      "logsBloom": "0x00000000000000000000000000000000000000004000000000000000000000000880000000000000000000000000000000000000041000002000000000000000000000000000000000000048000008000000000000000020000000000000000000000000000000000000000000004000000000000000000000000010000000000002000000000000000000000008000000200000000000000000100000000000000000000000000000000000000000000001080000000020000000000000000000000002000000000000000000000000000800020000000000000000000000000000000000000000004000000000000000000000000102002000000000000010",
      "type": "0x2",
      "transactionHash": "0x5a160792025f12fc74228ca21d9dd173c50587704ab6147f095cc6fb91174980",
      "transactionIndex": "0x3",
      "blockHash": "0xac47e0cd073bc37773339c8f3315fe41fc098215e45e29c22db6e51bdf2b2d2d",
      "blockNumber": "0x33c5783",
      "gasUsed": "0x21e12",
      "effectiveGasPrice": "0x7a121",
      "blobGasUsed": "0x11f80",
      "from": "0xf14f8199fd56c0e40860ca59a7196d0170269111",
      "to": "0x9cd2b0a732dd5e023a5539921e0fd1c30e198dba",
      "contractAddress": null,
      "daFootprintGasScalar": "0x190",
      "l1BaseFeeScalar": "0x7d0",
      "l1BlobBaseFee": "0x5123398",
      "l1BlobBaseFeeScalar": "0xdbba0",
      "l1Fee": "0x526daa191",
      "l1GasPrice": "0x513c93e3",
      "l1GasUsed": "0xb81"
    },
    {
      "status": "0x1",
      "cumulativeGasUsed": "0x50049",
      "logs": [],
      "logsBloom": "0x00000000000000000000000000000000000000000000000000000000000000000000000000000000000000000000000000000000000000000000000000000000000000000000000000000000000000000000000000000000000000000000000000000000000000000000000000000000000000000000000000000000000000000000000000000000000000000000000000000000000000000000000000000000000000000000000000000000000000000000000000000000000000000000000000000000000000000000000000000000000000000000000000000000000000000000000000000000000000000000000000000000000000000000000000000000",
      "type": "0x2",
      "transactionHash": "0x7b2b826d760e634d1f45be3607df055dbacd6f60ce9063d184ea2b1985983e29",
      "transactionIndex": "0x4",
      "blockHash": "0xac47e0cd073bc37773339c8f3315fe41fc098215e45e29c22db6e51bdf2b2d2d",
      "blockNumber": "0x33c5783",
      "gasUsed": "0x67f7",
      "effectiveGasPrice": "0x7a121",
      "blobGasUsed": "0x9c40",
      "from": "0xf14f8199fd56c0e40860ca59a7196d0170269111",
      "to": "0x1f592b54a638d55056ad45ed810814f7880580c0",
      "contractAddress": null,
      "daFootprintGasScalar": "0x190",
      "l1BaseFeeScalar": "0x7d0",
      "l1BlobBaseFee": "0x5123398",
      "l1BlobBaseFeeScalar": "0xdbba0",
      "l1Fee": "0x2cc5b2fe0",
      "l1GasPrice": "0x513c93e3",
      "l1GasUsed": "0x640"
    },
    {
      "status": "0x1",
      "cumulativeGasUsed": "0x56736",
      "logs": [
        {
          "address": "0xd2e4bcbdbdc94f42a0326964e8cec81c6fecf2fb",
          "topics": [
            "0x8c5be1e5ebec7d5bd14f71427d1e84f3dd0314c0f7b2291e5b200ac8c7c3b925",
            "0x000000000000000000000000f14f8199fd56c0e40860ca59a7196d0170269111",
            "0x0000000000000000000000009cd2b0a732dd5e023a5539921e0fd1c30e198dba"
          ],
          "data": "0xffffffffffffffffffffffffffffffffffffffffffffffffffffffffffffffff",
          "blockHash": "0xac47e0cd073bc37773339c8f3315fe41fc098215e45e29c22db6e51bdf2b2d2d",
          "blockNumber": "0x33c5783",
          "blockTimestamp": "0x6a2a04cf",
          "transactionHash": "0x13d1c5ac27d8004391d90cf8829f9a41218985dc1216b4a86e028a5ed84b2d64",
          "transactionIndex": "0x5",
          "logIndex": "0x4",
          "removed": false
        }
      ],
      "logsBloom": "0x00000000000000000000000000000000000000004000000000000000000000000880000000000000000000000000000000000000000000000000000000200000000000000000000000000000000008000000000000000000000000000000000000000000000000000000000000000000000000000000000000000000000000000002000000000000000000000000000000000000000000000000100000000000020000000000000000000000000000000001080000000000000000000000000000000000000000000000000000000000000000000000000000000000000000000010000000000000000000000000000000000000000000002000000000000000",
      "type": "0x2",
      "transactionHash": "0x13d1c5ac27d8004391d90cf8829f9a41218985dc1216b4a86e028a5ed84b2d64",
      "transactionIndex": "0x5",
      "blockHash": "0xac47e0cd073bc37773339c8f3315fe41fc098215e45e29c22db6e51bdf2b2d2d",
      "blockNumber": "0x33c5783",
      "gasUsed": "0x66ed",
      "effectiveGasPrice": "0x7a121",
      "blobGasUsed": "0x9c40",
      "from": "0xf14f8199fd56c0e40860ca59a7196d0170269111",
      "to": "0xd2e4bcbdbdc94f42a0326964e8cec81c6fecf2fb",
      "contractAddress": null,
      "daFootprintGasScalar": "0x190",
      "l1BaseFeeScalar": "0x7d0",
      "l1BlobBaseFee": "0x5123398",
      "l1BlobBaseFeeScalar": "0xdbba0",
      "l1Fee": "0x2cc5b2fe0",
      "l1GasPrice": "0x513c93e3",
      "l1GasUsed": "0x640"
    },
    {
      "status": "0x1",
      "cumulativeGasUsed": "0x455be",
      "logs": [
        {
          "address": "0x00b036b58a818b1bc34d502d3fe730db729e62ac",
          "topics": [
            "0x40e9cecb9f5f1f1c5b9c97dec2917b7ee92e57ba5563708daca94dd84ad7112f",
            "0x19477f7b51c43d9111cf5623710c8e3230bbbd96522a68df321a8a4a7d646f7c",
            "0x0000000000000000000000009cd2b0a732dd5e023a5539921e0fd1c30e198dba"
          ],
          "data": "0x0000000000000000000000000000000000000000000000000162213732a32f25fffffffffffffffffffffffffffffffffffffffffffffffffe9cba87a27600000000000000000000000000000000000000000001000cdc02c2a9b5de3af39f6e00000000000000000000000000000000000000000000001e4c8447f6c98cd59400000000000000000000000000000000000000000000000000000000000000030000000000000000000000000000000000000000000000000000000000000bb8",
          "blockHash": "0x18fce22951bd0cbc6df942309b59842cdeae7be43a972b5483248d43863cdfd3",
          "blockNumber": "0x33c5787",
          "blockTimestamp": "0x6a2a04d3",
          "transactionHash": "0x1506e3dca5d901941ed39b0306d283ad1442bb5bdf0f2f6b736abf1b971c3d4c",
          "transactionIndex": "0x3",
          "logIndex": "0x1",
          "removed": false
        },
        {
          "address": "0xd2e4bcbdbdc94f42a0326964e8cec81c6fecf2fb",
          "topics": [
            "0xddf252ad1be2c89b69c2b068fc378daa952ba7f163c4a11628f55a4df523b3ef",
            "0x000000000000000000000000f14f8199fd56c0e40860ca59a7196d0170269111",
            "0x00000000000000000000000000b036b58a818b1bc34d502d3fe730db729e62ac"
          ],
          "data": "0x000000000000000000000000000000000000000000000000016345785d8a0000",
          "blockHash": "0x18fce22951bd0cbc6df942309b59842cdeae7be43a972b5483248d43863cdfd3",
          "blockNumber": "0x33c5787",
          "blockTimestamp": "0x6a2a04d3",
          "transactionHash": "0x1506e3dca5d901941ed39b0306d283ad1442bb5bdf0f2f6b736abf1b971c3d4c",
          "transactionIndex": "0x3",
          "logIndex": "0x2",
          "removed": false
        },
        {
          "address": "0xb2c25e8f64236e374283f82f6dfc5f362a78b5d1",
          "topics": [
            "0xddf252ad1be2c89b69c2b068fc378daa952ba7f163c4a11628f55a4df523b3ef",
            "0x00000000000000000000000000b036b58a818b1bc34d502d3fe730db729e62ac",
            "0x000000000000000000000000f14f8199fd56c0e40860ca59a7196d0170269111"
          ],
          "data": "0x0000000000000000000000000000000000000000000000000162213732a32f25",
          "blockHash": "0x18fce22951bd0cbc6df942309b59842cdeae7be43a972b5483248d43863cdfd3",
          "blockNumber": "0x33c5787",
          "blockTimestamp": "0x6a2a04d3",
          "transactionHash": "0x1506e3dca5d901941ed39b0306d283ad1442bb5bdf0f2f6b736abf1b971c3d4c",
          "transactionIndex": "0x3",
          "logIndex": "0x3",
          "removed": false
        }
      ],
      "logsBloom": "0x00000000000000000000000000000000000000004000000000000000000000000880000000000000000000000000000000000000041000002000000000000000000000000000000000000048000008000000000000000020000000000000000000000000000000000000000000004000000000000000000000000010000000000002000000000000000000000008000000200000000000000000100000000000000000000000000000000000000000000001080000000020000000000000000000000002000000000000000000000000000800020000000000000000000000000000000000000000004000000000000000000000000102002000000000000010",
      "type": "0x2",
      "transactionHash": "0x1506e3dca5d901941ed39b0306d283ad1442bb5bdf0f2f6b736abf1b971c3d4c",
      "transactionIndex": "0x3",
      "blockHash": "0x18fce22951bd0cbc6df942309b59842cdeae7be43a972b5483248d43863cdfd3",
      "blockNumber": "0x33c5787",
      "gasUsed": "0x1db8a",
      "effectiveGasPrice": "0x7a121",
      "blobGasUsed": "0x11f80",
      "from": "0xf14f8199fd56c0e40860ca59a7196d0170269111",
      "to": "0x9cd2b0a732dd5e023a5539921e0fd1c30e198dba",
      "contractAddress": null,
      "daFootprintGasScalar": "0x190",
      "l1BaseFeeScalar": "0x7d0",
      "l1BlobBaseFee": "0x5123398",
      "l1BlobBaseFeeScalar": "0xdbba0",
      "l1Fee": "0x52cd8aa3a",
      "l1GasPrice": "0x513c93e3",
      "l1GasUsed": "0xb8f"
    }
  ],
  "libraries": [],
  "pending": [],
  "returns": {},
  "timestamp": 1781138644341,
  "chain": 1301,
  "commit": "14275e4"
}